{"abi":[{"type":"constructor","inputs":[],"stateMutability":"nonpayable"},{"type":"function","name":"VEHICLE_COLOR_Engagement","inputs":[{"name":"","type":"string","internalType":"string"}],"outputs":[{"name":"","type":"uint256","internalType":"uint256"}],"stateMutability":"view"},{"type":"function","name":"VEHICLE_TYPE_Engagement","inputs":[{"name":"","type":"string","internalType":"string"}],"outputs":[{"name":"","type":"uint256","internalType":"uint256"}],"stateMutability":"view"},{"type":"function","name":"addBonusPoints","inputs":[{"name":"user","type":"address","internalType":"address"},{"name":"points","type":"uint256","internalType":"uint256"},{"name":"reason","type":"string","internalType":"string"}],"outputs":[],"stateMutability":"nonpayable"},{"type":"function","name":"getPlatformStats","inputs":[{"name":"platform","type":"string","internalType":"string"}],"outputs":[{"name":"","type":"uint256","internalType":"uint256"}],"stateMutability":"view"},{"type":"function","name":"getTitleEngagement","inputs":[{"name":"title","type":"string","internalType":"string"}],"outputs":[{"name":"","type":"uint256","internalType":"uint256"}],"stateMutability":"view"},{"type":"function","name":"getUserLevel","inputs":[{"name":"user","type":"address","internalType":"address"}],"outputs":[{"name":"","type":"uint256","internalType":"uint256"}],"stateMutability":"view"},{"type":"function","name":"getUserStats","inputs":[{"name":"user","type":"address","internalType":"address"}],"outputs":[{"name":"points","type":"uint256","internalType":"uint256"},{"name":"totalEngagement","type":"uint256","internalType":"uint256"},{"name":"level","type":"uint256","internalType":"uint256"}],"stateMutability":"view"},{"type":"function","name":"getVEHICLE_COLOR_Engagement","inputs":[{"name":"VEHICLE_COLOR","type":"string","internalType":"string"}],"outputs":[{"name":"","type":"uint256","internalType":"uint256"}],"stateMutability":"view"},{"type":"function","name":"getVEHICLE_TYPE_Engagement","inputs":[{"name":"VEHICLE_TYPE","type":"string","internalType":"string"}],"outputs":[{"name":"","type":"uint256","internalType":"uint256"}],"stateMutability":"view"},{"type":"function","name":"owner","inputs":[],"outputs":[{"name":"","type":"address","internalType":"address"}],"stateMutability":"view"},{"type":"function","name":"platformEngagement","inputs":[{"name":"","type":"string","internalType":"string"}],"outputs":[{"name":"","type":"uint256","internalType":"uint256"}],"stateMutability":"view"},{"type":"function","name":"recordCarView","inputs":[{"name":"title","type":"string","internalType":"string"},{"name":"VEHICLE_COLOR","type":"string","internalType":"string"},{"name":"VEHICLE_TYPE","type":"string","internalType":"string"},{"name":"platform","type":"string","internalType":"string"}],"outputs":[],"stateMutability":"nonpayable"},{"type":"function","name":"renounceOwnership","inputs":[],"outputs":[],"stateMutability":"nonpayable"},{"type":"function","name":"titleEngagement","inputs":[{"name":"","type":"string","internalType":"string"}],"outputs":[{"name":"","type":"uint256","internalType":"uint256"}],"stateMutability":"view"},{"type":"function","name":"transferOwnership","inputs":[{"name":"newOwner","type":"address","internalType":"address"}],"outputs":[],"stateMutability":"nonpayable"},{"type":"function","name":"userPlatformEngagement","inputs":[{"name":"","type":"address","internalType":"address"},{"name":"","type":"string","internalType":"string"}],"outputs":[{"name":"","type":"uint256","internalType":"uint256"}],"stateMutability":"view"},{"type":"function","name":"userPoints","inputs":[{"name":"","type":"address","internalType":"address"}],"outputs":[{"name":"","type":"uint256","internalType":"uint256"}],"stateMutability":"view"},{"type":"function","name":"userTitleEngagement","inputs":[{"name":"","type":"address","internalType":"address"},{"name":"","type":"string","internalType":"string"}],"outputs":[{"name":"","type":"uint256","internalType":"uint256"}],"stateMutability":"view"},{"type":"function","name":"userTotalEngagement","inputs":[{"name":"","type":"address","internalType":"address"}],"outputs":[{"name":"","type":"uint256","internalType":"uint256"}],"stateMutability":"view"},{"type":"function","name":"userVEHICLE_COLOR_Engagement","inputs":[{"name":"","type":"address","internalType":"address"},{"name":"","type":"string","internalType":"string"}],"outputs":[{"name":"","type":"uint256","internalType":"uint256"}],"stateMutability":"view"},{"type":"function","name":"userVEHICLE_TYPE_Engagement","inputs":[{"name":"","type":"address","internalType":"address"},{"name":"","type":"string","internalType":"string"}],"outputs":[{"name":"","type":"uint256","internalType":"uint256"}],"stateMutability":"view"},{"type":"event","name":"CarViewed","inputs":[{"name":"user","type":"address","indexed":true,"internalType":"address"},{"name":"title","type":"string","indexed":false,"internalType":"string"},{"name":"VEHICLE_COLOR","type":"string","indexed":false,"internalType":"string"},{"name":"VEHICLE_TYPE","type":"string","indexed":false,"internalType":"string"},{"name":"platform","type":"string","indexed":false,"internalType":"string"},{"name":"timestamp","type":"uint256","indexed":false,"internalType":"uint256"}],"anonymous":false},{"type":"event","name":"OwnershipTransferred","inputs":[{"name":"previousOwner","type":"address","indexed":true,"internalType":"address"},{"name":"newOwner","type":"address","indexed":true,"internalType":"address"}],"anonymous":false},{"type":"event","name":"PointsEarned","inputs":[{"name":"user","type":"address","indexed":true,"internalType":"address"},{"name":"points","type":"uint256","indexed":false,"internalType":"uint256"},{"name":"reason","type":"string","indexed":false,"internalType":"string"}],"anonymous":false},{"type":"event","name":"UserLevelUp","inputs":[{"name":"user","type":"address","indexed":true,"internalType":"address"},{"name":"newLevel","type":"uint256","indexed":false,"internalType":"uint256"},{"name":"reason","type":"string","indexed":false,"internalType":"string"}],"anonymous":false},{"type":"error","name":"OwnableInvalidOwner","inputs":[{"name":"owner","type":"address","internalType":"address"}]},{"type":"error","name":"OwnableUnauthorizedAccount","inputs":[{"name":"account","type":"address","internalType":"address"}]},{"type":"error","name":"ReentrancyGuardReentrantCall","inputs":[]}],"bytecode":{"object":"0x608060405234801561000f575f5ffd5b50335f73ffffffffffffffffffffffffffffffffffffffff168173ffffffffffffffffffffffffffffffffffffffff1603610081575f6040517f1e4fbdf7000000000000000000000000000000000000000000000000000000008152600401610078919061019d565b60405180910390fd5b6100908161009d60201b60201c565b50600180819055506101b6565b5f5f5f9054906101000a900473ffffffffffffffffffffffffffffffffffffffff169050815f5f6101000a81548173ffffffffffffffffffffffffffffffffffffffff021916908373ffffffffffffffffffffffffffffffffffffffff1602179055508173ffffffffffffffffffffffffffffffffffffffff168173ffffffffffffffffffffffffffffffffffffffff167f8be0079c531659141344cd1fd0a4f28419497f9722a3daafe3b4186f6b6457e060405160405180910390a35050565b5f73ffffffffffffffffffffffffffffffffffffffff82169050919050565b5f6101878261015e565b9050919050565b6101978161017d565b82525050565b5f6020820190506101b05f83018461018e565b92915050565b611a2f806101c35f395ff3fe608060405234801561000f575f5ffd5b5060043610610135575f3560e01c8063715018a6116100b6578063e958d8d41161007a578063e958d8d4146103ab578063ecbb8981146103db578063f2fde38b1461040b578063f50ddbc714610427578063f58c132114610457578063fcbc05a31461048757610135565b8063715018a6146102f3578063765959e5146102fd578063825975731461032d5780638da5cb5b1461035d578063b0b153741461037b57610135565b8063372a98a8116100fd578063372a98a81461021557806345917b9b146102455780634e43603a1461026157806359b504b01461029357806364c64ec3146102c357610135565b806303787ff3146101395780630975fb561461016957806321923bde146101855780632ab0d372146101b557806333dcb155146101e5575b5f5ffd5b610153600480360381019061014e9190611205565b6104b7565b6040516101609190611264565b60405180910390f35b610183600480360381019061017e919061127d565b6104e4565b005b61019f600480360381019061019a91906113ab565b610a98565b6040516101ac9190611264565b60405180910390f35b6101cf60048036038101906101ca9190611205565b610aea565b6040516101dc9190611264565b60405180910390f35b6101ff60048036038101906101fa91906113d6565b610b11565b60405161020c9190611264565b60405180910390f35b61022f600480360381019061022a9190611205565b610b49565b60405161023c9190611264565b60405180910390f35b61025f600480360381019061025a919061145a565b610b70565b005b61027b600480360381019061027691906113ab565b610c20565b60405161028a939291906114c6565b60405180910390f35b6102ad60048036038101906102a891906113d6565b610cb5565b6040516102ba9190611264565b60405180910390f35b6102dd60048036038101906102d891906113d6565b610ced565b6040516102ea9190611264565b60405180910390f35b6102fb610d25565b005b610317600480360381019061031291906113d6565b610d38565b6040516103249190611264565b60405180910390f35b61034760048036038101906103429190611205565b610d70565b6040516103549190611264565b60405180910390f35b610365610d97565b604051610372919061150a565b60405180910390f35b61039560048036038101906103909190611205565b610dbe565b6040516103a29190611264565b60405180910390f35b6103c560048036038101906103c09190611205565b610deb565b6040516103d29190611264565b60405180910390f35b6103f560048036038101906103f09190611205565b610e18565b6040516104029190611264565b60405180910390f35b610425600480360381019061042091906113ab565b610e45565b005b610441600480360381019061043c91906113ab565b610ec9565b60405161044e9190611264565b60405180910390f35b610471600480360381019061046c91906113ab565b610ede565b60405161047e9190611264565b60405180910390f35b6104a1600480360381019061049c9190611205565b610ef3565b6040516104ae9190611264565b60405180910390f35b600a818051602081018201805184825260208301602085012081835280955050505050505f915090505481565b6104ec610f1a565b5f84511161052f576040517f08c379a00000000000000000000000000000000000000000000000000000000081526004016105269061157d565b60405180910390fd5b5f835111610572576040517f08c379a0000000000000000000000000000000000000000000000000000000008152600401610569906115e5565b60405180910390fd5b5f8251116105b5576040517f08c379a00000000000000000000000000000000000000000000000000000000081526004016105ac9061164d565b60405180910390fd5b5f8151116105f8576040517f08c379a00000000000000000000000000000000000000000000000000000000081526004016105ef906116b5565b60405180910390fd5b600160028560405161060a9190611725565b90815260200160405180910390205f8282546106269190611768565b92505081905550600160038460405161063f9190611725565b90815260200160405180910390205f82825461065b9190611768565b9250508190555060016004836040516106749190611725565b90815260200160405180910390205f8282546106909190611768565b925050819055506005805f3373ffffffffffffffffffffffffffffffffffffffff1673ffffffffffffffffffffffffffffffffffffffff1681526020019081526020015f205f8282546106e39190611768565b92505081905550600160065f3373ffffffffffffffffffffffffffffffffffffffff1673ffffffffffffffffffffffffffffffffffffffff1681526020019081526020015f205f8282546107379190611768565b92505081905550600160075f3373ffffffffffffffffffffffffffffffffffffffff1673ffffffffffffffffffffffffffffffffffffffff1681526020019081526020015f208560405161078b9190611725565b90815260200160405180910390205f8282546107a79190611768565b92505081905550600160085f3373ffffffffffffffffffffffffffffffffffffffff1673ffffffffffffffffffffffffffffffffffffffff1681526020019081526020015f20846040516107fb9190611725565b90815260200160405180910390205f8282546108179190611768565b92505081905550600160095f3373ffffffffffffffffffffffffffffffffffffffff1673ffffffffffffffffffffffffffffffffffffffff1681526020019081526020015f208360405161086b9190611725565b90815260200160405180910390205f8282546108879190611768565b925050819055506001600a826040516108a09190611725565b90815260200160405180910390205f8282546108bc9190611768565b925050819055506001600b5f3373ffffffffffffffffffffffffffffffffffffffff1673ffffffffffffffffffffffffffffffffffffffff1681526020019081526020015f20826040516109109190611725565b90815260200160405180910390205f82825461092c9190611768565b925050819055505f606460055f3373ffffffffffffffffffffffffffffffffffffffff1673ffffffffffffffffffffffffffffffffffffffff1681526020019081526020015f205461097e91906117c8565b90505f61098a33610a98565b9050808211156109e3573373ffffffffffffffffffffffffffffffffffffffff167fc83521514d3063e296bc60191c084b706aa93eb26ae7fa9df4ea9474c7c71f6f836040516109da9190611842565b60405180910390a25b3373ffffffffffffffffffffffffffffffffffffffff167f3378d02bdf41ed661634eb0f4722ae8bf11049e5e97e64870eb10e9d039087638787878742604051610a319594939291906118a6565b60405180910390a23373ffffffffffffffffffffffffffffffffffffffff167fb51b16cb4103a8ce441e52afe5cfabab49df83ba6b570adcde7724f975bdf7d06005604051610a80919061199f565b60405180910390a25050610a92610f60565b50505050565b5f606460055f8473ffffffffffffffffffffffffffffffffffffffff1673ffffffffffffffffffffffffffffffffffffffff1681526020019081526020015f2054610ae391906117c8565b9050919050565b5f600482604051610afb9190611725565b9081526020016040518091039020549050919050565b6009602052815f5260405f20818051602081018201805184825260208301602085012081835280955050505050505f91509150505481565b5f600a82604051610b5a9190611725565b9081526020016040518091039020549050919050565b610b78610f69565b8160055f8573ffffffffffffffffffffffffffffffffffffffff1673ffffffffffffffffffffffffffffffffffffffff1681526020019081526020015f205f828254610bc49190611768565b925050819055508273ffffffffffffffffffffffffffffffffffffffff167fb51b16cb4103a8ce441e52afe5cfabab49df83ba6b570adcde7724f975bdf7d08383604051610c139291906119cb565b60405180910390a2505050565b5f5f5f60055f8573ffffffffffffffffffffffffffffffffffffffff1673ffffffffffffffffffffffffffffffffffffffff1681526020019081526020015f2054925060065f8573ffffffffffffffffffffffffffffffffffffffff1673ffffffffffffffffffffffffffffffffffffffff1681526020019081526020015f20549150610cac84610a98565b90509193909250565b6007602052815f5260405f20818051602081018201805184825260208301602085012081835280955050505050505f91509150505481565b6008602052815f5260405f20818051602081018201805184825260208301602085012081835280955050505050505f91509150505481565b610d2d610f69565b610d365f610ff0565b565b600b602052815f5260405f20818051602081018201805184825260208301602085012081835280955050505050505f91509150505481565b5f600282604051610d819190611725565b9081526020016040518091039020549050919050565b5f5f5f9054906101000a900473ffffffffffffffffffffffffffffffffffffffff16905090565b6002818051602081018201805184825260208301602085012081835280955050505050505f915090505481565b6003818051602081018201805184825260208301602085012081835280955050505050505f915090505481565b6004818051602081018201805184825260208301602085012081835280955050505050505f915090505481565b610e4d610f69565b5f73ffffffffffffffffffffffffffffffffffffffff168173ffffffffffffffffffffffffffffffffffffffff1603610ebd575f6040517f1e4fbdf7000000000000000000000000000000000000000000000000000000008152600401610eb4919061150a565b60405180910390fd5b610ec681610ff0565b50565b6005602052805f5260405f205f915090505481565b6006602052805f5260405f205f915090505481565b5f600382604051610f049190611725565b9081526020016040518091039020549050919050565b600260015403610f56576040517f3ee5aeb500000000000000000000000000000000000000000000000000000000815260040160405180910390fd5b6002600181905550565b60018081905550565b610f716110b1565b73ffffffffffffffffffffffffffffffffffffffff16610f8f610d97565b73ffffffffffffffffffffffffffffffffffffffff1614610fee57610fb26110b1565b6040517f118cdaa7000000000000000000000000000000000000000000000000000000008152600401610fe5919061150a565b60405180910390fd5b565b5f5f5f9054906101000a900473ffffffffffffffffffffffffffffffffffffffff169050815f5f6101000a81548173ffffffffffffffffffffffffffffffffffffffff021916908373ffffffffffffffffffffffffffffffffffffffff1602179055508173ffffffffffffffffffffffffffffffffffffffff168173ffffffffffffffffffffffffffffffffffffffff167f8be0079c531659141344cd1fd0a4f28419497f9722a3daafe3b4186f6b6457e060405160405180910390a35050565b5f33905090565b5f604051905090565b5f5ffd5b5f5ffd5b5f5ffd5b5f5ffd5b5f601f19601f8301169050919050565b7f4e487b71000000000000000000000000000000000000000000000000000000005f52604160045260245ffd5b611117826110d1565b810181811067ffffffffffffffff82111715611136576111356110e1565b5b80604052505050565b5f6111486110b8565b9050611154828261110e565b919050565b5f67ffffffffffffffff821115611173576111726110e1565b5b61117c826110d1565b9050602081019050919050565b828183375f83830152505050565b5f6111a96111a484611159565b61113f565b9050828152602081018484840111156111c5576111c46110cd565b5b6111d0848285611189565b509392505050565b5f82601f8301126111ec576111eb6110c9565b5b81356111fc848260208601611197565b91505092915050565b5f6020828403121561121a576112196110c1565b5b5f82013567ffffffffffffffff811115611237576112366110c5565b5b611243848285016111d8565b91505092915050565b5f819050919050565b61125e8161124c565b82525050565b5f6020820190506112775f830184611255565b92915050565b5f5f5f5f60808587031215611295576112946110c1565b5b5f85013567ffffffffffffffff8111156112b2576112b16110c5565b5b6112be878288016111d8565b945050602085013567ffffffffffffffff8111156112df576112de6110c5565b5b6112eb878288016111d8565b935050604085013567ffffffffffffffff81111561130c5761130b6110c5565b5b611318878288016111d8565b925050606085013567ffffffffffffffff811115611339576113386110c5565b5b611345878288016111d8565b91505092959194509250565b5f73ffffffffffffffffffffffffffffffffffffffff82169050919050565b5f61137a82611351565b9050919050565b61138a81611370565b8114611394575f5ffd5b50565b5f813590506113a581611381565b92915050565b5f602082840312156113c0576113bf6110c1565b5b5f6113cd84828501611397565b91505092915050565b5f5f604083850312156113ec576113eb6110c1565b5b5f6113f985828601611397565b925050602083013567ffffffffffffffff81111561141a576114196110c5565b5b611426858286016111d8565b9150509250929050565b6114398161124c565b8114611443575f5ffd5b50565b5f8135905061145481611430565b92915050565b5f5f5f60608486031215611471576114706110c1565b5b5f61147e86828701611397565b935050602061148f86828701611446565b925050604084013567ffffffffffffffff8111156114b0576114af6110c5565b5b6114bc868287016111d8565b9150509250925092565b5f6060820190506114d95f830186611255565b6114e66020830185611255565b6114f36040830184611255565b949350505050565b61150481611370565b82525050565b5f60208201905061151d5f8301846114fb565b92915050565b5f82825260208201905092915050565b7f5469746c652063616e6e6f7420626520656d70747900000000000000000000005f82015250565b5f611567601583611523565b915061157282611533565b602082019050919050565b5f6020820190508181035f8301526115948161155b565b9050919050565b7f56454849434c455f434f4c4f522063616e6e6f7420626520656d7074790000005f82015250565b5f6115cf601d83611523565b91506115da8261159b565b602082019050919050565b5f6020820190508181035f8301526115fc816115c3565b9050919050565b7f56454849434c455f545950452063616e6e6f7420626520656d707479000000005f82015250565b5f611637601c83611523565b915061164282611603565b602082019050919050565b5f6020820190508181035f8301526116648161162b565b9050919050565b7f506c6174666f726d2063616e6e6f7420626520656d70747900000000000000005f82015250565b5f61169f601883611523565b91506116aa8261166b565b602082019050919050565b5f6020820190508181035f8301526116cc81611693565b9050919050565b5f81519050919050565b5f81905092915050565b8281835e5f83830152505050565b5f6116ff826116d3565b61170981856116dd565b93506117198185602086016116e7565b80840191505092915050565b5f61173082846116f5565b915081905092915050565b7f4e487b71000000000000000000000000000000000000000000000000000000005f52601160045260245ffd5b5f6117728261124c565b915061177d8361124c565b92508282019050808211156117955761179461173b565b5b92915050565b7f4e487b71000000000000000000000000000000000000000000000000000000005f52601260045260245ffd5b5f6117d28261124c565b91506117dd8361124c565b9250826117ed576117ec61179b565b5b828204905092915050565b7f506f696e7473206d696c6573746f6e65207265616368656421000000000000005f82015250565b5f61182c601983611523565b9150611837826117f8565b602082019050919050565b5f6040820190506118555f830184611255565b818103602083015261186681611820565b905092915050565b5f611878826116d3565b6118828185611523565b93506118928185602086016116e7565b61189b816110d1565b840191505092915050565b5f60a0820190508181035f8301526118be818861186e565b905081810360208301526118d2818761186e565b905081810360408301526118e6818661186e565b905081810360608301526118fa818561186e565b90506119096080830184611255565b9695505050505050565b5f819050919050565b5f819050919050565b5f61193f61193a61193584611913565b61191c565b61124c565b9050919050565b61194f81611925565b82525050565b7f43617220766965770000000000000000000000000000000000000000000000005f82015250565b5f611989600883611523565b915061199482611955565b602082019050919050565b5f6040820190506119b25f830184611946565b81810360208301526119c38161197d565b905092915050565b5f6040820190506119de5f830185611255565b81810360208301526119f0818461186e565b9050939250505056fea2646970667358221220a4c8caa8a2d2a0fe7dc7e9cd9d791b9c8f39753d6e7e5c79f78472da0437e9e364736f6c634300081e0033","linkReferences":{}},"methodIdentifiers":{"VEHICLE_COLOR_Engagement(string)":"e958d8d4","VEHICLE_TYPE_Engagement(string)":"ecbb8981","addBonusPoints(address,uint256,string)":"45917b9b","getPlatformStats(string)":"372a98a8","getTitleEngagement(string)":"82597573","getUserLevel(address)":"21923bde","getUserStats(address)":"4e43603a","getVEHICLE_COLOR_Engagement(string)":"fcbc05a3","getVEHICLE_TYPE_Engagement(string)":"2ab0d372","owner()":"8da5cb5b","platformEngagement(string)":"03787ff3","recordCarView(string,string,string,string)":"0975fb56","renounceOwnership()":"715018a6","titleEngagement(string)":"b0b15374","transferOwnership(address)":"f2fde38b","userPlatformEngagement(address,string)":"765959e5","userPoints(address)":"f50ddbc7","userTitleEngagement(address,string)":"59b504b0","userTotalEngagement(address)":"f58c1321","userVEHICLE_COLOR_Engagement(address,string)":"64c64ec3","userVEHICLE_TYPE_Engagement(address,string)":"33dcb155"},"id":19}